:100000000A128A11C92FFF1B0D2883137F1883172B
:100010000008840A0319FF0A080000308A00040857
:10002000840A820700345A346F346E3465342534C0
:100030007534203454343A342534323464344334FF
:1000400020342034253463342034203400344F34B9
:10005000633463343A3425342D34323464342034F8
:10006000703465346F3470346C346534203420342B
:1000700020340034203433342D345A346F346E3409
:1000800065342034533479347334743465346D34C6
:1000900020342034003445346E346534723467348F
:1000A000793420344D346F346E34693474346F34A1
:1000B0007234203420340034543445344D345034B8
:1000C0005F3441340034543445344D3450345F345B
:1000D00042340034543445344D3450345F34433466
:1000E00000344F34433443345F34413400344F34AC
:1000F000433443345F34423400344F344334433464
:060100005F3443340034BB
:100108000800F501F601700871040319BC28F7010D
:10011800F70AF11B9B2801300310F00DF10DFF3E8B
:10012800031D90280130F4007408F7078D2801306A
:100138000310F50DF60DFF3E031D9C287108730290
:10014800031DA82870087202031CB1287008F20267
:100158007108031CF303F302751401300310F10C4A
:10016800F00CFF3E031DB2280130F702031D9B2847
:100178007608F1007508F0000800F6000530F00078
:1001880076080A128A1577240A128A11C33E840057
:1001980083130008F400840A0008F5007508803A03
:1001A800FF0080307F02031DDB2813307402031820
:1001B800E9280530F00076080A128A157724C73E28
:1001C800840048308313800008000530F00076086A
:1001D8000A128A1577240A128A11C33E84008313EF
:1001E8000008F400840A0008F5007508803AFF004A
:1001F80080307F02031D02291A307402031C102963
:100208000530F00076080A128A157724C73E840064
:1002180043308313800008000530F00076080A1286
:100228008A157724C73E8400533083138000080062
:1002380083120313A4005E085F04031D28295F08C6
:10024800A3005E08A20030295E08FF3EA2005F08F6
:100258000318013EFF3EA300661C40297808F900F8
:10026800FA017908F0007A08F1002408F2000A126D
:100278008A156E260A128A1183120313A31F4629B0
:10028800A201A301A001A1012108803AF9002308D5
:10029800803A7902031D52292208200203186A298C
:1002A8002030F0000030F100831203132408F2001C
:1002B8000A128A156E260A128A1101308312031354
:1002C800A0070318A10A0030A107482983120313C5
:1002D800661808007808F900FA017908F0007A0829
:1002E800F1002408F2000A128A156E26080083120B
:1002F8000313AC00AD01AD0A5F08AB005E08AA00AD
:100308001F30AE000030AF0083160317AF01C829B5
:100318002808290403192D080319CE29FF30AE0730
:100328000318AF0AFF30AF072E08903E84000A304A
:10033800F0000030F1002908F3002808F2000A1242
:100348008A158D250A128A117008303E831780009D
:1003580083120313AD01FF30AA070318AB0AFF305D
:10036800AB070A30F0000030F1002908F300280834
:10037800F2000A128A1185200A128A117108831262
:100388000313A9007008A800831203132E082F0472
:10039800031D8C292E08903EFB002B08FD002A081F
:1003A800FC002C080A128A152C2608008316031351
:1003B8005508F9005408F8005308F7005208F600E9
:1003C800FA010F30F4007408831288040130F40035
:1003D8007A08763E8400000AF3290310F40DFF3EE4
:1003E800031DF1297408FF3AF500750888050630E1
:1003F800F400F40BFD290000FB010130F4007B0A36
:10040800072A0310F40DFF3E031D052A7408831202
:1004180003130605031D3F2A3430F500F130F400BC
:10042800F40B142AF50B142A192A0130F4007B0A5C
:100438001F2A0310F40DFF3E031D1D2A74088312A2
:10044800031306050319192A1A30F500F830F400C9
:10045800F40B2C2AF50B2C2A00000F30F40074083A
:100468008312031388040330F0007A080A128A15ED
:1004780077247B0708000130F4007408FB07033079
:100488007B02031C012A0130F4007408FA070430C7
:100498007A02031CE5290F30F40074088804FF3041
:1004A800080083120313C100BF01C001C301430840
:1004B8002B3E8400831380010130FC007C08C307B5
:1004C80014304302031C5B2AC301872A43084107EF
:1004D80084000A128A110D200A128A11003A03199F
:1004E8008B2A4308410784000A128A110D200A1238
:1004F8008A11FC0043082B3E84007C0880000130F0
:10050800FC007C08C30707304302031C6A2AB601B3
:10051800B501B401B3012630C200420884000008C6
:10052800B700420A84000008B8004208023E84006E
:100538000008B9004208033E84000008BA002A08EF
:10054800BB00C30143082B3E84000008FC00FD01EA
:100558007C08BF070318C00A7D08C0070130FC00EB
:100568007C08C30711304302031CA62A3F08BC00BD
:10057800C30143082B3E8400831300080A128A151E
:100588002C240A128A110130FC007C088312031300
:10059800C3071430430203180800BD2A8316031347
:1005A800C200013083120313C300831603134208E9
:1005B800013E83120313C400003003180130C50044
:1005C8000530F0008316031342080A128A157724AF
:1005D8000A128A11C33E840083130008831203138E
:1005E800C600840A0008C7000530F000831603130C
:1005F80042080A128A1577240A128A11C73E840013
:100608008313000883120313D800D9015808C800BF
:100618005908C900A0300A128A15E6240A128A115C
:10062800153083120313C3000530F000831603133B
:1006380042080A128A1577240A128A11C53E8400D4
:100648008313000883120313C400840A0008C5003A
:10065800B1300A128A15E6240A128A11F301003011
:100668000A128A1567240A128A11A030F300003092
:10067800F4000A128A1543250A128A11F30101307F
:100688000A128A1567240A128A11B130F300003061
:10069800F4000A128A1543250F3083120313D80079
:1006A80058088804080083120313C6010530F000B7
:1006B80046080A128A1577240A128A11C33E840052
:1006C8008313000883120313C400840A0008C500BA
:1006D8004408F4004508F5000030F51BFF30F6002B
:1006E800F70001300A128A118A240A128A1177083F
:1006F80083120313A9007608A8007508A7007408D8
:10070800A600AA014608683E8400831300080A125E
:100718008A1155220A128A111A3083120313C5004E
:10072800F730C400C40B962BC50B962B9B2B0530BA
:10073800F0008312031346080A128A1577240A1256
:100748008A11C53E84008313000883120313C40072
:10075800840A0008C5004408F4004508F500003084
:10076800F51BFF30F600F70001300A128A118A24BF
:100778000A128A11770883120313A9007608A800C1
:100788007508A7007408A6000330AA004608D63EDC
:100798008400831300080A128A1155220A128A114A
:1007A8001A3083120313C500F730C400C40BDA2BC8
:1007B800C50BDA2BDF2B013083120313C400440866
:1007C800C60703304602031C5A2B0F30C4004408E6
:1007D8008804080083120313AA00AD01AD0AA91FFB
:1007E800F72B0130F82B0030B0005F08AF005E082F
:1007F800AE0030080319112CFF30AE070318AF0AFA
:10080800FF30AF073008031D0B2C2B300C2C2D307C
:10081800AB000030AC002B08B0001F30B100003036
:10082800B20083160317AF01602C83120313280844
:10083800290403192D0803196D2CFF30B10703187B
:10084800B20AFF30B2073108903E84000A30F00047
:100858000030F1002908F3002808F2000A128A156E
:10086800B9260A128A117108F8007008F7000A12EE
:100878008A1549240A128A117708303E83178000A6
:1008880083120313AD01FF30AE070318AF0AFF3020
:10089800AF070A30F0000030F1002908F3002808FB
:1008A800F2000A128A15A7270A128A117108831200
:1008B8000313A9007008A800831203133208803AB2
:1008C800FF0080307F02031D6B2C013031020318BA
:1008D800192C83120313300803197E2CFF30B1073B
:1008E8000318B20AFF30B2073108903E840030087E
:1008F800831780003108903EFB002F08FD002E086A
:10090800FC002A080A128A152C26080083120313F1
:10091800A0002008031DF71FA12C7409A200750967
:10092800A3007609A4007709A500A20A0319A30A5F
:100938000319A40A0319A50AA92C7708A5007608A3
:10094800A4007508A3007408A2007708760475044B
:100958007404031DB82C0030F7000030F600003096
:10096800F5000030F40008009630A100FE3025059F
:100978000319E72C0130F8007808A10701300310AB
:10098800A50CA40CA30CA20CFF3E031DC32CBA2C6F
:100998000130F8007808A1070130A20700300318D9
:1009A8000130A307003003180130A40700300318F2
:1009B8000130A50701300310A50CA40CA30CA20C50
:1009C800FF3E031DDF2CFF3025050319FB2CCC2C23
:1009D80002302102031CFD2C0130A1020130F80075
:1009E8000310A20DA30DA40DA50DF80BF42CA41F44
:1009F800EC2C2118072DFF30A205FF30A3057F300E
:100A0800A405FF30A5050310A10C2108F800F90181
:100A1800FA01FB0118300310F80DF90DFA0DFB0D62
:100A2800FF3E031D0F2D7808A2047908A3047A0855
:100A3800A4047B08A5042008031DF71F242DA5176F
:100A48002508F7002408F6002308F5002208F4001A
:100A5800080083160313850107308600C03087001D
:100A680088018901831203138501073086008701F5
:100A78000F30880089010630831603139F00811305
:100A88000A128A15BF250A128A110A128A15F42534
:100A98000A128A110A128A153C240A128A110A12A9
:100AA8008A1599240A128A11F30100300A128A154C
:100AB80067240A128A113930F3008030F4000A12D0
:100AC8008A1543250A128A11F30101300A128A1580
:100AD80067240A128A112830F3008030F4000A12C1
:100AE8008A1543250A128A11153083120313DC0074
:100AF8004B30DB00BD30DA00DA0B802DDB0B802DAC
:100B0800DC0B802D872D0A128A1557240A128A11A8
:100B18000A128A1504270A128A1100300A128A1149
:100B2800D2220A128A110A128A11DA210A128A11A9
:100B380083120313DD005D0A0319B02D5D080A1244
:100B48008A11FC250A128A118312031367080A12F4
:100B58008A11D2220A128A11013083120313E40780
:100B68000318E50A0030E50707306502D03003199D
:100B78006402031CDB2DE401E5010330F0000030C2
:100B8800F1006708013EF200003003180130F3005D
:100B98000A128A15B9260A128A11700883120313D9
:100BA800E70067080A128A11D2220A128A11013054
:100BB80083120313E2070318E30A0030E307133034
:100BC8006302883003196202031CF12DE201E3017C
:100BD8000A128A1157230A128A1103308312031347
:100BE800DB009730DA00DA0BF72DDB0BF72D972DAA
:100BF800F9000330F0000030F1007908F700F8013F
:100C08007708F2007808F3000A128A15B9260A1242
:100C18008A117008FA00033079020318382E05305B
:100C2800F0007A080A128A1577240A128A11C33E3C
:100C3800840083130008F700840A0008F800780885
:100C4800803AFF0080307F02031D2C2E233077026C
:100C58000318C22E0530F0007A080A128A15772484
:100C68000A128A11C33E892E063079020318612EB2
:100C78000530F0007A080A128A1577240A128A11B8
:100C8800C33E840083130008F700840A0008F800B4
:100C98007808803AFF0080307F02031D552E1030FF
:100CA8007702031CC22E0530F0007A080A128A1552
:100CB80077240A128A11C33EB52E09307902031827
:100CC800912E0530F0007A080A128A1577240A1244
:100CD8008A11C53E840083130008F700840A0008BF
:100CE800F8007808803AFF0080307F02031D7E2ECE
:100CF8001E3077020318C22E0530F0007A080A1257
:100D08008A1577240A128A11C53E8400013083139C
:100D18008007840A0318800AC22E0530F0007A087A
:100D28000A128A1577240A128A11C53E8400831391
:100D38000008F700840A0008F8007808803AFF00E5
:100D480080307F02031DAA2E01307702031CC22EB9
:100D58000530F0007A080A128A1577240A128A11D7
:100D6800C53E8400FF3083138007840F00080318F2
:100D7800000AFF00FF307F07800084037A080A1208
:100D88008A11C1200A128A110A128A15042708003A
:100D980083120313BD003308840083130008840002
:100DA8000A128A110D200A128A11253A031DB22F40
:100DB8000130B5003308840035088007DE01DF0103
:100DC8000310003003180130E600FF30E000FF3068
:100DD800E100B801F92E66140130B500330884002B
:100DE80035088007F92EB801B80A3808031D0A2FFC
:100DF80033088400000884000A128A110D200A12A0
:100E08008A112D3A0319EF2EF72EF92E3408F60021
:100E180033080A128A1553270A128A11770883128F
:100E28000313DF007608DE00DF1F202F6614DE09BB
:100E3800DF09DE0A0319DF0A330884008313000878
:100E480084000A128A110D200A128A11633A031DBE
:100E5800442F0130B5003308840035088007340872
:100E680084000008B50002308007350884000008B7
:100E7800B7003708F8003D080A128A111C2108003B
:100E8800330884000008BE003E0884000A128A1154
:100E98000D200A128A11643A03195C2F3E08840057
:100EA8000A128A110D200A128A11693A031D772F36
:100EB800340884000008B500023080073508840033
:100EC8000008B900840A0008BA00330884003E0804
:100ED800013E80003A08A9003908A8003D080A1216
:100EE8008A11EE2308003E0884000A128A110D2098
:100EF8000A128A11753A031DA82F340884000008C5
:100F0800B50002308007350884000008B900840A5B
:100F18000008BA00330884003E08013E80009D2F77
:100F28003A08A9003908A8003D080A128A117B214D
:100F380008003E0884000A128A110D200A128A113C
:100F4800753A0319942FA82F013083120313B500A3
:100F580033088400350883138007080033088400A9
:100F6800000884000A128A110D200A128A11B5009D
:100F7800B6013508F0003608F1003D08F2000A1203
:100F88008A156E260A128A11A82F8313D930FD00FC
:100F98000C30FE002530FF00D23084000A128A157A
:100FA8008C240A128A116B30FD000C30FE002230AE
:100FB800FF00683084000A128A158C240A128A11EC
:100FC800831790308400B0300A128A1534240A122C
:100FD8008A118313C3308400D2300A128A1534244C
:100FE8000A128A115E30840068300A128A15342485
:080FF80083010A128A112D2D5C
:101844004A345134583403340234013400345F349C
:1018540065346B34F000831203130C1E2D2C7008B6
:101864009900080064008001840A04060319003406
:101874000406352C83160313071387173330990096
:101884002430980090308312031398000800F81F46
:1018940008007709F9007809FA00F90A0319FA0A25
:1018A4007908F7007A08F800080001300A128A154E
:1018B400AC240A128A150630F4003030F300F30B1E
:1018C400612CF40B612C00000800F4007408031967
:1018D4006D2CC0306E2C8030F5000030F60073089B
:1018E40075070A128A15AC240800F300F201731C70
:1018F4007F2C7008F1007108F2070310F00D03103B
:10190400F30C7308031D792C720808007E088A0002
:101914007F08820088240A128A158000840A040839
:101924007D0603190034FF0A0319FE0A8C2CF030DB
:10193400F00070088316031388050F30F000700858
:101944008312031388040730F0007008831603130E
:1019540086040800F2008312031309117208880038
:1019640089100630F1003030F000F00BB72CF10B89
:10197400B72C00008312031389140630F1003030B1
:10198400F000F00BC32CF10BC32C00000800F20094
:101994008312031309157208880089100630F100B8
:1019A4003030F000F00BD42CF10BD42C0000831257
:1019B400031389140630F1003030F000F00BE02CF2
:1019C400F10BE02C0000080083120313CB00443019
:1019D400CC004B08CD00CF01D001D601D70143087C
:1019E400BF004C30C0004D300A128A150325831203
:1019F40003134F084B07CA004A088400831380016D
:101A0400080083120313C1003F08C20083120313AA
:101A1400420884000A128A110D200A128A15003A1B
:101A240003191F2D4230B3004008B40041080A12C4
:101A34008A11CC260A128A15082DBF01C00108009C
:101A4400F401F501701C2C2D7208F4070318F50A33
:101A54007308F50701300310F20DF30DFF3E031D6B
:101A64002D2D01300310F10CF00CFF3E031D342D1D
:101A740070087104031D242D7508F1007408F0002A
:101A84000800740883120313FF00730884000A1209
:101A94008A1103200A128A15003A031908007408EF
:101AA400FF00730884000A128A1103200A128A159F
:101AB4000A128A15C9240A128A150130F307031879
:101AC400F40A0030F407432D83120313A300A10189
:101AD400A20121082307F90079088400831700086C
:101AE400A0002008031908002008F900FA01790869
:101AF400F0007A08F1007808F2000A128A156E26BE
:101B04000A128A15013083120313A1070318A20ACB
:101B14000030A2076B2D700871040319BA2DF5016A
:101B2400F50AF11BA12D01300310F00DF10DFF3E5C
:101B3400031D962D0130F4007408F507932D7108E8
:101B44007302031DA72D70087202031CAF2D7008C9
:101B5400F2027108031CF303F30201300310F10CC9
:101B6400F00CFF3E031DB02D0130F502031DA12D25
:101B74007308F1007208F0000800F5010530F00068
:101B840075080A128A1577240A128A15C33E84003E
:101B9400163083138000840A003080000530F00082
:101BA40075080A128A1577240A128A15C53E84001C
:101BB40083138001840A80010530F00075080A123D
:101BC4008A1577240A128A15C73E8400533083137A
:101BD40080000130F4007408F5070330750203181F
:101BE4000800C02D83160313891009118801890187
:101BF40006309F00831203138914091188014130B0
:101C0400F400EE30F300F30B052EF40B052E000068
:101C140038300A128A15AC240A128A150C300A12BA
:101C24008A15AC240A128A1506300A128A15AC24C5
:101C34000A128A1501300A128A15AC240A128A156E
:101C44000630F4003030F300F30B262EF40B262E6E
:101C54000000080083120313A700661C392E27080E
:101C6400F8007B080A128A1566250A128A15FD1FD8
:101C74003D2EFC01FD0183120313A501A6012608D4
:101C8400803AA4007D08803A2402031D4B2E7C0870
:101C940025020318632E2030F0000030F100831277
:101CA40003132708F2000A128A156E260A128A15EF
:101CB400013083120313A5070318A60A0030A607F0
:101CC400412E83120313661808002708F8007B08C6
:101CD4000A128A15662508007208031D7208031D7E
:101CE400782E70080A128A11842008007208093EAE
:101CF400840083130008F300840A0008F4007308C6
:101D040074040319A12E7208093E84000008F3002C
:101D1400840A0008F4007208023E84000008F500FA
:101D2400840A0008F6007608803AF7007408803ABE
:101D34007702031D9F2E73087502031808007208AA
:101D4400023E840083130008F30072088400000834
:101D54007307F40074088400700880007208023E5F
:101D6400840001308007840A0318800A0800F60101
:101D7400F31FC32EF209F309F20A0319F30AF60159
:101D8400F60AF11FCA2EF009F109F00A0319F10A43
:101D9400700871040319F72EF501F50AF11BDE2E04
:101DA40001300310F00DF10DFF3E031DD32E013061
:101DB400F4007408F507D02E71087302031DE42E95
:101DC40070087202031CEC2E7008F2027108031CE6
:101DD400F303F30201300310F10CF00CFF3E031D7A
:101DE400ED2E0130F502031DDE2E76080319FF2EB9
:101DF400F209F309F20A0319F30A7308F1007208ED
:101E0400F00008004830831603134706031D0E2F05
:101E1400831203130814112F83120313081048307C
:101E2400831603134C06031D1B2F831203138814FC
:101E34001E2F831203138810483083160313510690
:101E4400031D282F8312031308152B2F831203134A
:101E540008114330831603134706031D352F8312DD
:101E640003130514382F831203130510433083160C
:101E740003134C06031D422F831203138514452FAD
:101E84008312031385104330831603135106031D75
:101E94004F2F831203130515080083120313051132
:101EA4000800FC00FA01FB017C088400831300088D
:101EB40084000A128A110D200A128A152A3A031D77
:101EC400932F0130F8007C08840078088007760896
:101ED40084000008F80002308007780884000008B5
:101EE400FA00840A0008FB00A22F7B08F1007A089C
:101EF400F0000A30F2000030F3000A128A1522259D
:101F04000A128A1579087007FA00003003180130A4
:101F14007107FB000130F8007C0884007808831303
:101F240080077C088400000884000A128A110D20AE
:101F34000A128A15D03EF9000A307902031C772F61
:101F44007B08F7007A08F6000800F601F11FB12FAC
:101F5400F009F109F00A0319F10AF601F60AF31F70
:101F6400BC2FF209F309F20A0319F30A0130F40051
:101F74007408F606F701F801700871040319F32FC9
:101F8400F501F50AF11BD22F01300310F00DF10D0C
:101F9400FF3E031DC72F0130F4007408F507C42F5A
:101FA40001300310F70DF80DFF3E031DD32F710808
:101FB4007302031DDF2F70087202031CE82F7008E0
:101FC400F2027108031CF303F302771401300310C7
:101FD400F10CF00CFF3E031DE92F0130F502031D47
:101FE400D22F76080319FB2FF709F809F70A03190A
:0C1FF400F80A7808F1007708F0000800F7
:02400E007A3FF7
:00000001FF
